{
  "_format": "hh-sol-artifact-1",
  "contractName": "DiamondTracker",
  "sourceName": "contracts/DiamondTracking.sol",
  "abi": [
    {
      "inputs": [
        {
          "internalType": "string",
          "name": "_condition",
          "type": "string"
        },
        {
          "internalType": "string",
          "name": "_owner",
          "type": "string"
        },
        {
          "internalType": "string",
          "name": "_imageHash",
          "type": "string"
        }
      ],
      "name": "createDiamond",
      "outputs": [],
      "stateMutability": "nonpayable",
      "type": "function"
    },
    {
      "inputs": [],
      "name": "diamondCount",
      "outputs": [
        {
          "internalType": "uint256",
          "name": "",
          "type": "uint256"
        }
      ],
      "stateMutability": "view",
      "type": "function"
    },
    {
      "inputs": [
        {
          "internalType": "uint256",
          "name": "",
          "type": "uint256"
        }
      ],
      "name": "diamonds",
      "outputs": [
        {
          "internalType": "uint256",
          "name": "id",
          "type": "uint256"
        },
        {
          "internalType": "string",
          "name": "condition",
          "type": "string"
        },
        {
          "internalType": "string",
          "name": "owner",
          "type": "string"
        },
        {
          "internalType": "bool",
          "name": "verified",
          "type": "bool"
        },
        {
          "internalType": "string",
          "name": "imageHash",
          "type": "string"
        }
      ],
      "stateMutability": "view",
      "type": "function"
    },
    {
      "inputs": [
        {
          "internalType": "uint256",
          "name": "_id",
          "type": "uint256"
        },
        {
          "internalType": "string",
          "name": "_newOwner",
          "type": "string"
        },
        {
          "internalType": "string",
          "name": "_newImageHash",
          "type": "string"
        }
      ],
      "name": "transferOwnership",
      "outputs": [],
      "stateMutability": "nonpayable",
      "type": "function"
    },
    {
      "inputs": [
        {
          "internalType": "uint256",
          "name": "_id",
          "type": "uint256"
        }
      ],
      "name": "verifyDiamond",
      "outputs": [],
      "stateMutability": "nonpayable",
      "type": "function"
    }
  ],
  "bytecode": "0x608060405234801561001057600080fd5b50610bd1806100206000396000f3fe608060405234801561001057600080fd5b50600436106100575760003560e01c8063122456571461005c57806313d83277146100785780633951e09b14610096578063f2247ab7146100ca578063fabd08d5146100e6575b600080fd5b610076600480360381019061007191906105bb565b610102565b005b61008061014d565b60405161008d9190610655565b60405180910390f35b6100b060048036038101906100ab9190610670565b610153565b6040516100c1959493929190610737565b60405180910390f35b6100e460048036038101906100df9190610670565b61032e565b005b61010060048036038101906100fb919061079f565b61035f565b005b8160008085815260200190815260200160002060020190816101249190610a52565b508060008085815260200190815260200160002060040190816101479190610a52565b50505050565b60015481565b600060205280600052604060002060009150905080600001549080600101805461017c90610875565b80601f01602080910402602001604051908101604052809291908181526020018280546101a890610875565b80156101f55780601f106101ca576101008083540402835291602001916101f5565b820191906000526020600020905b8154815290600101906020018083116101d857829003601f168201915b50505050509080600201805461020a90610875565b80601f016020809104026020016040519081016040528092919081815260200182805461023690610875565b80156102835780601f1061025857610100808354040283529160200191610283565b820191906000526020600020905b81548152906001019060200180831161026657829003601f168201915b5050505050908060030160009054906101000a900460ff16908060040180546102ab90610875565b80601f01602080910402602001604051908101604052809291908181526020018280546102d790610875565b80156103245780601f106102f957610100808354040283529160200191610324565b820191906000526020600020905b81548152906001019060200180831161030757829003601f168201915b5050505050905085565b600160008083815260200190815260200160002060030160006101000a81548160ff02191690831515021790555050565b6001600081548092919061037290610b53565b91905055506040518060a0016040528060015481526020018481526020018381526020016000151581526020018281525060008060015481526020019081526020016000206000820151816000015560208201518160010190816103d69190610a52565b5060408201518160020190816103ec9190610a52565b5060608201518160030160006101000a81548160ff02191690831515021790555060808201518160040190816104229190610a52565b50905050505050565b6000604051905090565b600080fd5b600080fd5b6000819050919050565b6104528161043f565b811461045d57600080fd5b50565b60008135905061046f81610449565b92915050565b600080fd5b600080fd5b6000601f19601f8301169050919050565b7f4e487b7100000000000000000000000000000000000000000000000000000000600052604160045260246000fd5b6104c88261047f565b810181811067ffffffffffffffff821117156104e7576104e6610490565b5b80604052505050565b60006104fa61042b565b905061050682826104bf565b919050565b600067ffffffffffffffff82111561052657610525610490565b5b61052f8261047f565b9050602081019050919050565b82818337600083830152505050565b600061055e6105598461050b565b6104f0565b90508281526020810184848401111561057a5761057961047a565b5b61058584828561053c565b509392505050565b600082601f8301126105a2576105a1610475565b5b81356105b284826020860161054b565b91505092915050565b6000806000606084860312156105d4576105d3610435565b5b60006105e286828701610460565b935050602084013567ffffffffffffffff8111156106035761060261043a565b5b61060f8682870161058d565b925050604084013567ffffffffffffffff8111156106305761062f61043a565b5b61063c8682870161058d565b9150509250925092565b61064f8161043f565b82525050565b600060208201905061066a6000830184610646565b92915050565b60006020828403121561068657610685610435565b5b600061069484828501610460565b91505092915050565b600081519050919050565b600082825260208201905092915050565b60005b838110156106d75780820151818401526020810190506106bc565b60008484015250505050565b60006106ee8261069d565b6106f881856106a8565b93506107088185602086016106b9565b6107118161047f565b840191505092915050565b60008115159050919050565b6107318161071c565b82525050565b600060a08201905061074c6000830188610646565b818103602083015261075e81876106e3565b9050818103604083015261077281866106e3565b90506107816060830185610728565b818103608083015261079381846106e3565b90509695505050505050565b6000806000606084860312156107b8576107b7610435565b5b600084013567ffffffffffffffff8111156107d6576107d561043a565b5b6107e28682870161058d565b935050602084013567ffffffffffffffff8111156108035761080261043a565b5b61080f8682870161058d565b925050604084013567ffffffffffffffff8111156108305761082f61043a565b5b61083c8682870161058d565b9150509250925092565b7f4e487b7100000000000000000000000000000000000000000000000000000000600052602260045260246000fd5b6000600282049050600182168061088d57607f821691505b6020821081036108a05761089f610846565b5b50919050565b60008190508160005260206000209050919050565b60006020601f8301049050919050565b600082821b905092915050565b6000600883026109087fffffffffffffffffffffffffffffffffffffffffffffffffffffffffffffffff826108cb565b61091286836108cb565b95508019841693508086168417925050509392505050565b6000819050919050565b600061094f61094a6109458461043f565b61092a565b61043f565b9050919050565b6000819050919050565b61096983610934565b61097d61097582610956565b8484546108d8565b825550505050565b600090565b610992610985565b61099d818484610960565b505050565b5b818110156109c1576109b660008261098a565b6001810190506109a3565b5050565b601f821115610a06576109d7816108a6565b6109e0846108bb565b810160208510156109ef578190505b610a036109fb856108bb565b8301826109a2565b50505b505050565b600082821c905092915050565b6000610a2960001984600802610a0b565b1980831691505092915050565b6000610a428383610a18565b9150826002028217905092915050565b610a5b8261069d565b67ffffffffffffffff811115610a7457610a73610490565b5b610a7e8254610875565b610a898282856109c5565b600060209050601f831160018114610abc5760008415610aaa578287015190505b610ab48582610a36565b865550610b1c565b601f198416610aca866108a6565b60005b82811015610af257848901518255600182019150602085019450602081019050610acd565b86831015610b0f5784890151610b0b601f891682610a18565b8355505b6001600288020188555050505b505050505050565b7f4e487b7100000000000000000000000000000000000000000000000000000000600052601160045260246000fd5b6000610b5e8261043f565b91507fffffffffffffffffffffffffffffffffffffffffffffffffffffffffffffffff8203610b9057610b8f610b24565b5b60018201905091905056fea264697066735822122098980fa539c3720881bfa4d8b472137c7fbb0f7fe1459d8486fe456beae8e94764736f6c63430008140033",
  "linkReferences": {},
  "deployedLinkReferences": {}
}